{
  "_format": "hh-sol-artifact-1",
  "contractName": "DiamondfNFT",
  "sourceName": "contracts/DiamondNFT.sol",
  "abi": [
    {
      "inputs": [],
      "stateMutability": "nonpayable",
      "type": "constructor"
    },
    {
      "anonymous": false,
      "inputs": [
        {
          "indexed": true,
          "internalType": "address",
          "name": "owner",
          "type": "address"
        },
        {
          "indexed": true,
          "internalType": "address",
          "name": "approved",
          "type": "address"
        },
        {
          "indexed": true,
          "internalType": "uint256",
          "name": "tokenId",
          "type": "uint256"
        }
      ],
      "name": "Approval",
      "type": "event"
    },
    {
      "anonymous": false,
      "inputs": [
        {
          "indexed": true,
          "internalType": "address",
          "name": "owner",
          "type": "address"
        },
        {
          "indexed": true,
          "internalType": "address",
          "name": "operator",
          "type": "address"
        },
        {
          "indexed": false,
          "internalType": "bool",
          "name": "approved",
          "type": "bool"
        }
      ],
      "name": "ApprovalForAll",
      "type": "event"
    },
    {
      "anonymous": false,
      "inputs": [
        {
          "indexed": true,
          "internalType": "address",
          "name": "previousOwner",
          "type": "address"
        },
        {
          "indexed": true,
          "internalType": "address",
          "name": "newOwner",
          "type": "address"
        }
      ],
      "name": "OwnershipTransferred",
      "type": "event"
    },
    {
      "anonymous": false,
      "inputs": [
        {
          "indexed": true,
          "internalType": "address",
          "name": "from",
          "type": "address"
        },
        {
          "indexed": true,
          "internalType": "address",
          "name": "to",
          "type": "address"
        },
        {
          "indexed": true,
          "internalType": "uint256",
          "name": "tokenId",
          "type": "uint256"
        }
      ],
      "name": "Transfer",
      "type": "event"
    },
    {
      "inputs": [],
      "name": "MINT_PRICE",
      "outputs": [
        {
          "internalType": "uint256",
          "name": "",
          "type": "uint256"
        }
      ],
      "stateMutability": "view",
      "type": "function"
    },
    {
      "inputs": [],
      "name": "TOTAL_SUPPLY",
      "outputs": [
        {
          "internalType": "uint256",
          "name": "",
          "type": "uint256"
        }
      ],
      "stateMutability": "view",
      "type": "function"
    },
    {
      "inputs": [
        {
          "internalType": "address",
          "name": "to",
          "type": "address"
        },
        {
          "internalType": "uint256",
          "name": "tokenId",
          "type": "uint256"
        }
      ],
      "name": "approve",
      "outputs": [],
      "stateMutability": "nonpayable",
      "type": "function"
    },
    {
      "inputs": [
        {
          "internalType": "address",
          "name": "owner",
          "type": "address"
        }
      ],
      "name": "balanceOf",
      "outputs": [
        {
          "internalType": "uint256",
          "name": "",
          "type": "uint256"
        }
      ],
      "stateMutability": "view",
      "type": "function"
    },
    {
      "inputs": [],
      "name": "baseTokenURI",
      "outputs": [
        {
          "internalType": "string",
          "name": "",
          "type": "string"
        }
      ],
      "stateMutability": "view",
      "type": "function"
    },
    {
      "inputs": [
        {
          "internalType": "uint256",
          "name": "tokenId",
          "type": "uint256"
        }
      ],
      "name": "getApproved",
      "outputs": [
        {
          "internalType": "address",
          "name": "",
          "type": "address"
        }
      ],
      "stateMutability": "view",
      "type": "function"
    },
    {
      "inputs": [
        {
          "internalType": "address",
          "name": "owner",
          "type": "address"
        },
        {
          "internalType": "address",
          "name": "operator",
          "type": "address"
        }
      ],
      "name": "isApprovedForAll",
      "outputs": [
        {
          "internalType": "bool",
          "name": "",
          "type": "bool"
        }
      ],
      "stateMutability": "view",
      "type": "function"
    },
    {
      "inputs": [
        {
          "internalType": "address",
          "name": "recipient",
          "type": "address"
        }
      ],
      "name": "mintTo",
      "outputs": [
        {
          "internalType": "uint256",
          "name": "",
          "type": "uint256"
        }
      ],
      "stateMutability": "payable",
      "type": "function"
    },
    {
      "inputs": [],
      "name": "name",
      "outputs": [
        {
          "internalType": "string",
          "name": "",
          "type": "string"
        }
      ],
      "stateMutability": "view",
      "type": "function"
    },
    {
      "inputs": [],
      "name": "owner",
      "outputs": [
        {
          "internalType": "address",
          "name": "",
          "type": "address"
        }
      ],
      "stateMutability": "view",
      "type": "function"
    },
    {
      "inputs": [
        {
          "internalType": "uint256",
          "name": "tokenId",
          "type": "uint256"
        }
      ],
      "name": "ownerOf",
      "outputs": [
        {
          "internalType": "address",
          "name": "",
          "type": "address"
        }
      ],
      "stateMutability": "view",
      "type": "function"
    },
    {
      "inputs": [
        {
          "internalType": "address",
          "name": "dest",
          "type": "address"
        }
      ],
      "name": "payments",
      "outputs": [
        {
          "internalType": "uint256",
          "name": "",
          "type": "uint256"
        }
      ],
      "stateMutability": "view",
      "type": "function"
    },
    {
      "inputs": [],
      "name": "renounceOwnership",
      "outputs": [],
      "stateMutability": "nonpayable",
      "type": "function"
    },
    {
      "inputs": [
        {
          "internalType": "address",
          "name": "from",
          "type": "address"
        },
        {
          "internalType": "address",
          "name": "to",
          "type": "address"
        },
        {
          "internalType": "uint256",
          "name": "tokenId",
          "type": "uint256"
        }
      ],
      "name": "safeTransferFrom",
      "outputs": [],
      "stateMutability": "nonpayable",
      "type": "function"
    },
    {
      "inputs": [
        {
          "internalType": "address",
          "name": "from",
          "type": "address"
        },
        {
          "internalType": "address",
          "name": "to",
          "type": "address"
        },
        {
          "internalType": "uint256",
          "name": "tokenId",
          "type": "uint256"
        },
        {
          "internalType": "bytes",
          "name": "_data",
          "type": "bytes"
        }
      ],
      "name": "safeTransferFrom",
      "outputs": [],
      "stateMutability": "nonpayable",
      "type": "function"
    },
    {
      "inputs": [
        {
          "internalType": "address",
          "name": "operator",
          "type": "address"
        },
        {
          "internalType": "bool",
          "name": "approved",
          "type": "bool"
        }
      ],
      "name": "setApprovalForAll",
      "outputs": [],
      "stateMutability": "nonpayable",
      "type": "function"
    },
    {
      "inputs": [
        {
          "internalType": "string",
          "name": "_baseTokenURI",
          "type": "string"
        }
      ],
      "name": "setBaseTokenURI",
      "outputs": [],
      "stateMutability": "nonpayable",
      "type": "function"
    },
    {
      "inputs": [
        {
          "internalType": "bytes4",
          "name": "interfaceId",
          "type": "bytes4"
        }
      ],
      "name": "supportsInterface",
      "outputs": [
        {
          "internalType": "bool",
          "name": "",
          "type": "bool"
        }
      ],
      "stateMutability": "view",
      "type": "function"
    },
    {
      "inputs": [],
      "name": "symbol",
      "outputs": [
        {
          "internalType": "string",
          "name": "",
          "type": "string"
        }
      ],
      "stateMutability": "view",
      "type": "function"
    },
    {
      "inputs": [
        {
          "internalType": "uint256",
          "name": "tokenId",
          "type": "uint256"
        }
      ],
      "name": "tokenURI",
      "outputs": [
        {
          "internalType": "string",
          "name": "",
          "type": "string"
        }
      ],
      "stateMutability": "view",
      "type": "function"
    },
    {
      "inputs": [
        {
          "internalType": "address",
          "name": "from",
          "type": "address"
        },
        {
          "internalType": "address",
          "name": "to",
          "type": "address"
        },
        {
          "internalType": "uint256",
          "name": "tokenId",
          "type": "uint256"
        }
      ],
      "name": "transferFrom",
      "outputs": [],
      "stateMutability": "nonpayable",
      "type": "function"
    },
    {
      "inputs": [
        {
          "internalType": "address",
          "name": "newOwner",
          "type": "address"
        }
      ],
      "name": "transferOwnership",
      "outputs": [],
      "stateMutability": "nonpayable",
      "type": "function"
    },
    {
      "inputs": [
        {
          "internalType": "address payable",
          "name": "payee",
          "type": "address"
        }
      ],
      "name": "withdrawPayments",
      "outputs": [],
      "stateMutability": "nonpayable",
      "type": "function"
    }
  ],
  "bytecode": "0x60a06040523480156200001157600080fd5b506040518060400160405280600b81526020017f4469616d6f6e64664e46540000000000000000000000000000000000000000008152506040518060400160405280600481526020017f444e46540000000000000000000000000000000000000000000000000000000081525081600090805190602001906200009692919062000230565b508060019080519060200190620000af92919062000230565b505050604051620000c090620002c1565b604051809103906000f080158015620000dd573d6000803e3d6000fd5b5073ffffffffffffffffffffffffffffffffffffffff1660808173ffffffffffffffffffffffffffffffffffffffff1660601b8152505062000134620001286200016260201b60201c565b6200016a60201b60201c565b60405180602001604052806000815250600890805190602001906200015b92919062000230565b5062000353565b600033905090565b6000600660009054906101000a900473ffffffffffffffffffffffffffffffffffffffff16905081600660006101000a81548173ffffffffffffffffffffffffffffffffffffffff021916908373ffffffffffffffffffffffffffffffffffffffff1602179055508173ffffffffffffffffffffffffffffffffffffffff168173ffffffffffffffffffffffffffffffffffffffff167f8be0079c531659141344cd1fd0a4f28419497f9722a3daafe3b4186f6b6457e060405160405180910390a35050565b8280546200023e90620002ee565b90600052602060002090601f016020900481019282620002625760008555620002ae565b82601f106200027d57805160ff1916838001178555620002ae565b82800160010185558215620002ae579182015b82811115620002ad57825182559160200191906001019062000290565b5b509050620002bd9190620002cf565b5090565b610d09806200382283390190565b5b80821115620002ea576000816000905550600101620002d0565b5090565b600060028204905060018216806200030757607f821691505b602082108114156200031e576200031d62000324565b5b50919050565b7f4e487b7100000000000000000000000000000000000000000000000000000000600052602260045260246000fd5b60805160601c6134a96200037960003960008181610f6a015261167701526134a96000f3fe6080604052600436106101405760003560e01c8063755edd17116100b6578063c002d23d1161006f578063c002d23d1461044b578063c87b56dd14610476578063d547cfb7146104b3578063e2982c21146104de578063e985e9c51461051b578063f2fde38b1461055857610140565b8063755edd17146103485780638da5cb5b14610378578063902d55a5146103a357806395d89b41146103ce578063a22cb465146103f9578063b88d4fde1461042257610140565b806330176e131161010857806330176e131461023c57806331b3eb941461026557806342842e0e1461028e5780636352211e146102b757806370a08231146102f4578063715018a61461033157610140565b806301ffc9a71461014557806306fdde0314610182578063081812fc146101ad578063095ea7b3146101ea57806323b872dd14610213575b600080fd5b34801561015157600080fd5b5061016c600480360381019061016791906123c1565b610581565b60405161017991906128a1565b60405180910390f35b34801561018e57600080fd5b50610197610663565b6040516101a491906128bc565b60405180910390f35b3480156101b957600080fd5b506101d460048036038101906101cf9190612454565b6106f5565b6040516101e1919061281f565b60405180910390f35b3480156101f657600080fd5b50610211600480360381019061020c9190612385565b61077a565b005b34801561021f57600080fd5b5061023a6004803603810190610235919061227f565b610892565b005b34801561024857600080fd5b50610263600480360381019061025e9190612413565b6108f2565b005b34801561027157600080fd5b5061028c6004803603810190610287919061221a565b610988565b005b34801561029a57600080fd5b506102b560048036038101906102b0919061227f565b610a10565b005b3480156102c357600080fd5b506102de60048036038101906102d99190612454565b610a30565b6040516102eb919061281f565b60405180910390f35b34801561030057600080fd5b5061031b600480360381019061031691906121f1565b610ae2565b6040516103289190612b1e565b60405180910390f35b34801561033d57600080fd5b50610346610b9a565b005b610362600480360381019061035d91906121f1565b610c22565b60405161036f9190612b1e565b60405180910390f35b34801561038457600080fd5b5061038d610ceb565b60405161039a919061281f565b60405180910390f35b3480156103af57600080fd5b506103b8610d15565b6040516103c59190612b1e565b60405180910390f35b3480156103da57600080fd5b506103e3610d1b565b6040516103f091906128bc565b60405180910390f35b34801561040557600080fd5b50610420600480360381019061041b9190612349565b610dad565b005b34801561042e57600080fd5b50610449600480360381019061044491906122ce565b610dc3565b005b34801561045757600080fd5b50610460610e25565b60405161046d9190612b1e565b60405180910390f35b34801561048257600080fd5b5061049d60048036038101906104989190612454565b610e31565b6040516104aa91906128bc565b60405180910390f35b3480156104bf57600080fd5b506104c8610ed8565b6040516104d591906128bc565b60405180910390f35b3480156104ea57600080fd5b50610505600480360381019061050091906121f1565b610f66565b6040516105129190612b1e565b60405180910390f35b34801561052757600080fd5b50610542600480360381019061053d9190612243565b611018565b60405161054f91906128a1565b60405180910390f35b34801561056457600080fd5b5061057f600480360381019061057a91906121f1565b6110ac565b005b60007f80ac58cd000000000000000000000000000000000000000000000000000000007bffffffffffffffffffffffffffffffffffffffffffffffffffffffff1916827bffffffffffffffffffffffffffffffffffffffffffffffffffffffff1916148061064c57507f5b5e139f000000000000000000000000000000000000000000000000000000007bffffffffffffffffffffffffffffffffffffffffffffffffffffffff1916827bffffffffffffffffffffffffffffffffffffffffffffffffffffffff1916145b8061065c575061065b826111a4565b5b9050919050565b60606000805461067290612d86565b80601f016020809104026020016040519081016040528092919081815260200182805461069e90612d86565b80156106eb5780601f106106c0576101008083540402835291602001916106eb565b820191906000526020600020905b8154815290600101906020018083116106ce57829003601f168201915b5050505050905090565b60006107008261120e565b61073f576040517f08c379a000000000000000000000000000000000000000000000000000000000815260040161073690612a3e565b60405180910390fd5b6004600083815260200190815260200160002060009054906101000a900473ffffffffffffffffffffffffffffffffffffffff169050919050565b600061078582610a30565b90508073ffffffffffffffffffffffffffffffffffffffff168373ffffffffffffffffffffffffffffffffffffffff1614156107f6576040517f08c379a00000000000000000000000000000000000000000000000000000000081526004016107ed90612abe565b60405180910390fd5b8073ffffffffffffffffffffffffffffffffffffffff1661081561127a565b73ffffffffffffffffffffffffffffffffffffffff16148061084457506108438161083e61127a565b611018565b5b610883576040517f08c379a000000000000000000000000000000000000000000000000000000000815260040161087a906129be565b60405180910390fd5b61088d8383611282565b505050565b6108a361089d61127a565b8261133b565b6108e2576040517f08c379a00000000000000000000000000000000000000000000000000000000081526004016108d990612ade565b60405180910390fd5b6108ed838383611419565b505050565b6108fa61127a565b73ffffffffffffffffffffffffffffffffffffffff16610918610ceb565b73ffffffffffffffffffffffffffffffffffffffff161461096e576040517f08c379a000000000000000000000000000000000000000000000000000000000815260040161096590612a5e565b60405180910390fd5b8060089080519060200190610984929190611feb565b5050565b61099061127a565b73ffffffffffffffffffffffffffffffffffffffff166109ae610ceb565b73ffffffffffffffffffffffffffffffffffffffff1614610a04576040517f08c379a00000000000000000000000000000000000000000000000000000000081526004016109fb90612a5e565b60405180910390fd5b610a0d81611675565b50565b610a2b83838360405180602001604052806000815250610dc3565b505050565b6000806002600084815260200190815260200160002060009054906101000a900473ffffffffffffffffffffffffffffffffffffffff169050600073ffffffffffffffffffffffffffffffffffffffff168173ffffffffffffffffffffffffffffffffffffffff161415610ad9576040517f08c379a0000000000000000000000000000000000000000000000000000000008152600401610ad0906129fe565b60405180910390fd5b80915050919050565b60008073ffffffffffffffffffffffffffffffffffffffff168273ffffffffffffffffffffffffffffffffffffffff161415610b53576040517f08c379a0000000000000000000000000000000000000000000000000000000008152600401610b4a906129de565b60405180910390fd5b600360008373ffffffffffffffffffffffffffffffffffffffff1673ffffffffffffffffffffffffffffffffffffffff168152602001908152602001600020549050919050565b610ba261127a565b73ffffffffffffffffffffffffffffffffffffffff16610bc0610ceb565b73ffffffffffffffffffffffffffffffffffffffff1614610c16576040517f08c379a0000000000000000000000000000000000000000000000000000000008152600401610c0d90612a5e565b60405180910390fd5b610c206000611703565b565b600080610c2f60076117c9565b90506127108110610c75576040517f08c379a0000000000000000000000000000000000000000000000000000000008152600401610c6c90612afe565b60405180910390fd5b67011c37937e0800003414610cbf576040517f08c379a0000000000000000000000000000000000000000000000000000000008152600401610cb69061297e565b60405180910390fd5b610cc960076117d7565b6000610cd560076117c9565b9050610ce184826117ed565b8092505050919050565b6000600660009054906101000a900473ffffffffffffffffffffffffffffffffffffffff16905090565b61271081565b606060018054610d2a90612d86565b80601f0160208091040260200160405190810160405280929190818152602001828054610d5690612d86565b8015610da35780601f10610d7857610100808354040283529160200191610da3565b820191906000526020600020905b815481529060010190602001808311610d8657829003601f168201915b5050505050905090565b610dbf610db861127a565b838361180b565b5050565b610dd4610dce61127a565b8361133b565b610e13576040517f08c379a0000000000000000000000000000000000000000000000000000000008152600401610e0a90612ade565b60405180910390fd5b610e1f84848484611978565b50505050565b67011c37937e08000081565b6060610e3c8261120e565b610e7b576040517f08c379a0000000000000000000000000000000000000000000000000000000008152600401610e7290612a9e565b60405180910390fd5b6000610e856119d4565b90506000815111610ea55760405180602001604052806000815250610ed0565b80610eaf84611a66565b604051602001610ec09291906127fb565b6040516020818303038152906040525b915050919050565b60088054610ee590612d86565b80601f0160208091040260200160405190810160405280929190818152602001828054610f1190612d86565b8015610f5e5780601f10610f3357610100808354040283529160200191610f5e565b820191906000526020600020905b815481529060010190602001808311610f4157829003601f168201915b505050505081565b60007f000000000000000000000000000000000000000000000000000000000000000073ffffffffffffffffffffffffffffffffffffffff1663e3a9db1a836040518263ffffffff1660e01b8152600401610fc1919061281f565b60206040518083038186803b158015610fd957600080fd5b505afa158015610fed573d6000803e3d6000fd5b505050506040513d601f19601f82011682018060405250810190611011919061247d565b9050919050565b6000600560008473ffffffffffffffffffffffffffffffffffffffff1673ffffffffffffffffffffffffffffffffffffffff16815260200190815260200160002060008373ffffffffffffffffffffffffffffffffffffffff1673ffffffffffffffffffffffffffffffffffffffff16815260200190815260200160002060009054906101000a900460ff16905092915050565b6110b461127a565b73ffffffffffffffffffffffffffffffffffffffff166110d2610ceb565b73ffffffffffffffffffffffffffffffffffffffff1614611128576040517f08c379a000000000000000000000000000000000000000000000000000000000815260040161111f90612a5e565b60405180910390fd5b600073ffffffffffffffffffffffffffffffffffffffff168173ffffffffffffffffffffffffffffffffffffffff161415611198576040517f08c379a000000000000000000000000000000000000000000000000000000000815260040161118f906128fe565b60405180910390fd5b6111a181611703565b50565b60007f01ffc9a7000000000000000000000000000000000000000000000000000000007bffffffffffffffffffffffffffffffffffffffffffffffffffffffff1916827bffffffffffffffffffffffffffffffffffffffffffffffffffffffff1916149050919050565b60008073ffffffffffffffffffffffffffffffffffffffff166002600084815260200190815260200160002060009054906101000a900473ffffffffffffffffffffffffffffffffffffffff1673ffffffffffffffffffffffffffffffffffffffff1614159050919050565b600033905090565b816004600083815260200190815260200160002060006101000a81548173ffffffffffffffffffffffffffffffffffffffff021916908373ffffffffffffffffffffffffffffffffffffffff160217905550808273ffffffffffffffffffffffffffffffffffffffff166112f583610a30565b73ffffffffffffffffffffffffffffffffffffffff167f8c5be1e5ebec7d5bd14f71427d1e84f3dd0314c0f7b2291e5b200ac8c7c3b92560405160405180910390a45050565b60006113468261120e565b611385576040517f08c379a000000000000000000000000000000000000000000000000000000000815260040161137c9061299e565b60405180910390fd5b600061139083610a30565b90508073ffffffffffffffffffffffffffffffffffffffff168473ffffffffffffffffffffffffffffffffffffffff1614806113ff57508373ffffffffffffffffffffffffffffffffffffffff166113e7846106f5565b73ffffffffffffffffffffffffffffffffffffffff16145b80611410575061140f8185611018565b5b91505092915050565b8273ffffffffffffffffffffffffffffffffffffffff1661143982610a30565b73ffffffffffffffffffffffffffffffffffffffff161461148f576040517f08c379a000000000000000000000000000000000000000000000000000000000815260040161148690612a7e565b60405180910390fd5b600073ffffffffffffffffffffffffffffffffffffffff168273ffffffffffffffffffffffffffffffffffffffff1614156114ff576040517f08c379a00000000000000000000000000000000000000000000000000000000081526004016114f69061293e565b60405180910390fd5b61150a838383611c13565b611515600082611282565b6001600360008573ffffffffffffffffffffffffffffffffffffffff1673ffffffffffffffffffffffffffffffffffffffff16815260200190815260200160002060008282546115659190612c8a565b925050819055506001600360008473ffffffffffffffffffffffffffffffffffffffff1673ffffffffffffffffffffffffffffffffffffffff16815260200190815260200160002060008282546115bc9190612c03565b92505081905550816002600083815260200190815260200160002060006101000a81548173ffffffffffffffffffffffffffffffffffffffff021916908373ffffffffffffffffffffffffffffffffffffffff160217905550808273ffffffffffffffffffffffffffffffffffffffff168473ffffffffffffffffffffffffffffffffffffffff167fddf252ad1be2c89b69c2b068fc378daa952ba7f163c4a11628f55a4df523b3ef60405160405180910390a4505050565b7f000000000000000000000000000000000000000000000000000000000000000073ffffffffffffffffffffffffffffffffffffffff166351cff8d9826040518263ffffffff1660e01b81526004016116ce919061283a565b600060405180830381600087803b1580156116e857600080fd5b505af11580156116fc573d6000803e3d6000fd5b5050505050565b6000600660009054906101000a900473ffffffffffffffffffffffffffffffffffffffff16905081600660006101000a81548173ffffffffffffffffffffffffffffffffffffffff021916908373ffffffffffffffffffffffffffffffffffffffff1602179055508173ffffffffffffffffffffffffffffffffffffffff168173ffffffffffffffffffffffffffffffffffffffff167f8be0079c531659141344cd1fd0a4f28419497f9722a3daafe3b4186f6b6457e060405160405180910390a35050565b600081600001549050919050565b6001816000016000828254019250508190555050565b611807828260405180602001604052806000815250611c18565b5050565b8173ffffffffffffffffffffffffffffffffffffffff168373ffffffffffffffffffffffffffffffffffffffff16141561187a576040517f08c379a00000000000000000000000000000000000000000000000000000000081526004016118719061295e565b60405180910390fd5b80600560008573ffffffffffffffffffffffffffffffffffffffff1673ffffffffffffffffffffffffffffffffffffffff16815260200190815260200160002060008473ffffffffffffffffffffffffffffffffffffffff1673ffffffffffffffffffffffffffffffffffffffff16815260200190815260200160002060006101000a81548160ff0219169083151502179055508173ffffffffffffffffffffffffffffffffffffffff168373ffffffffffffffffffffffffffffffffffffffff167f17307eab39ab6107e8899845ad3d59bd9653f200f220920489ca2b5937696c318360405161196b91906128a1565b60405180910390a3505050565b611983848484611419565b61198f84848484611c73565b6119ce576040517f08c379a00000000000000000000000000000000000000000000000000000000081526004016119c5906128de565b60405180910390fd5b50505050565b6060600880546119e390612d86565b80601f0160208091040260200160405190810160405280929190818152602001828054611a0f90612d86565b8015611a5c5780601f10611a3157610100808354040283529160200191611a5c565b820191906000526020600020905b815481529060010190602001808311611a3f57829003601f168201915b5050505050905090565b60606000821415611aae576040518060400160405280600181526020017f30000000000000000000000000000000000000000000000000000000000000008152509050611c0e565b600082905060005b60008214611ae0578080611ac990612de9565b915050600a82611ad99190612c59565b9150611ab6565b60008167ffffffffffffffff811115611b22577f4e487b7100000000000000000000000000000000000000000000000000000000600052604160045260246000fd5b6040519080825280601f01601f191660200182016040528015611b545781602001600182028036833780820191505090505b5090505b60008514611c0757600182611b6d9190612c8a565b9150600a85611b7c9190612e32565b6030611b889190612c03565b60f81b818381518110611bc4577f4e487b7100000000000000000000000000000000000000000000000000000000600052603260045260246000fd5b60200101907effffffffffffffffffffffffffffffffffffffffffffffffffffffffffffff1916908160001a905350600a85611c009190612c59565b9450611b58565b8093505050505b919050565b505050565b611c228383611e0a565b611c2f6000848484611c73565b611c6e576040517f08c379a0000000000000000000000000000000000000000000000000000000008152600401611c65906128de565b60405180910390fd5b505050565b6000611c948473ffffffffffffffffffffffffffffffffffffffff16611fd8565b15611dfd578373ffffffffffffffffffffffffffffffffffffffff1663150b7a02611cbd61127a565b8786866040518563ffffffff1660e01b8152600401611cdf9493929190612855565b602060405180830381600087803b158015611cf957600080fd5b505af1925050508015611d2a57506040513d601f19601f82011682018060405250810190611d2791906123ea565b60015b611dad573d8060008114611d5a576040519150601f19603f3d011682016040523d82523d6000602084013e611d5f565b606091505b50600081511415611da5576040517f08c379a0000000000000000000000000000000000000000000000000000000008152600401611d9c906128de565b60405180910390fd5b805181602001fd5b63150b7a0260e01b7bffffffffffffffffffffffffffffffffffffffffffffffffffffffff1916817bffffffffffffffffffffffffffffffffffffffffffffffffffffffff191614915050611e02565b600190505b949350505050565b600073ffffffffffffffffffffffffffffffffffffffff168273ffffffffffffffffffffffffffffffffffffffff161415611e7a576040517f08c379a0000000000000000000000000000000000000000000000000000000008152600401611e7190612a1e565b60405180910390fd5b611e838161120e565b15611ec3576040517f08c379a0000000000000000000000000000000000000000000000000000000008152600401611eba9061291e565b60405180910390fd5b611ecf60008383611c13565b6001600360008473ffffffffffffffffffffffffffffffffffffffff1673ffffffffffffffffffffffffffffffffffffffff1681526020019081526020016000206000828254611f1f9190612c03565b92505081905550816002600083815260200190815260200160002060006101000a81548173ffffffffffffffffffffffffffffffffffffffff021916908373ffffffffffffffffffffffffffffffffffffffff160217905550808273ffffffffffffffffffffffffffffffffffffffff16600073ffffffffffffffffffffffffffffffffffffffff167fddf252ad1be2c89b69c2b068fc378daa952ba7f163c4a11628f55a4df523b3ef60405160405180910390a45050565b600080823b905060008111915050919050565b828054611ff790612d86565b90600052602060002090601f0160209004810192826120195760008555612060565b82601f1061203257805160ff1916838001178555612060565b82800160010185558215612060579182015b8281111561205f578251825591602001919060010190612044565b5b50905061206d9190612071565b5090565b5b8082111561208a576000816000905550600101612072565b5090565b60006120a161209c84612b5e565b612b39565b9050828152602081018484840111156120b957600080fd5b6120c4848285612d44565b509392505050565b60006120df6120da84612b8f565b612b39565b9050828152602081018484840111156120f757600080fd5b612102848285612d44565b509392505050565b60008135905061211981613400565b92915050565b60008135905061212e81613417565b92915050565b6000813590506121438161342e565b92915050565b60008135905061215881613445565b92915050565b60008151905061216d81613445565b92915050565b600082601f83011261218457600080fd5b813561219484826020860161208e565b91505092915050565b600082601f8301126121ae57600080fd5b81356121be8482602086016120cc565b91505092915050565b6000813590506121d68161345c565b92915050565b6000815190506121eb8161345c565b92915050565b60006020828403121561220357600080fd5b60006122118482850161210a565b91505092915050565b60006020828403121561222c57600080fd5b600061223a8482850161211f565b91505092915050565b6000806040838503121561225657600080fd5b60006122648582860161210a565b92505060206122758582860161210a565b9150509250929050565b60008060006060848603121561229457600080fd5b60006122a28682870161210a565b93505060206122b38682870161210a565b92505060406122c4868287016121c7565b9150509250925092565b600080600080608085870312156122e457600080fd5b60006122f28782880161210a565b94505060206123038782880161210a565b9350506040612314878288016121c7565b925050606085013567ffffffffffffffff81111561233157600080fd5b61233d87828801612173565b91505092959194509250565b6000806040838503121561235c57600080fd5b600061236a8582860161210a565b925050602061237b85828601612134565b9150509250929050565b6000806040838503121561239857600080fd5b60006123a68582860161210a565b92505060206123b7858286016121c7565b9150509250929050565b6000602082840312156123d357600080fd5b60006123e184828501612149565b91505092915050565b6000602082840312156123fc57600080fd5b600061240a8482850161215e565b91505092915050565b60006020828403121561242557600080fd5b600082013567ffffffffffffffff81111561243f57600080fd5b61244b8482850161219d565b91505092915050565b60006020828403121561246657600080fd5b6000612474848285016121c7565b91505092915050565b60006020828403121561248f57600080fd5b600061249d848285016121dc565b91505092915050565b6124af81612cd0565b82525050565b6124be81612cbe565b82525050565b6124cd81612ce2565b82525050565b60006124de82612bc0565b6124e88185612bd6565b93506124f8818560208601612d53565b61250181612f1f565b840191505092915050565b600061251782612bcb565b6125218185612be7565b9350612531818560208601612d53565b61253a81612f1f565b840191505092915050565b600061255082612bcb565b61255a8185612bf8565b935061256a818560208601612d53565b80840191505092915050565b6000612583603283612be7565b915061258e82612f30565b604082019050919050565b60006125a6602683612be7565b91506125b182612f7f565b604082019050919050565b60006125c9601c83612be7565b91506125d482612fce565b602082019050919050565b60006125ec602483612be7565b91506125f782612ff7565b604082019050919050565b600061260f601983612be7565b915061261a82613046565b602082019050919050565b6000612632602e83612be7565b915061263d8261306f565b604082019050919050565b6000612655602c83612be7565b9150612660826130be565b604082019050919050565b6000612678603883612be7565b91506126838261310d565b604082019050919050565b600061269b602a83612be7565b91506126a68261315c565b604082019050919050565b60006126be602983612be7565b91506126c9826131ab565b604082019050919050565b60006126e1602083612be7565b91506126ec826131fa565b602082019050919050565b6000612704602c83612be7565b915061270f82613223565b604082019050919050565b6000612727602083612be7565b915061273282613272565b602082019050919050565b600061274a602983612be7565b91506127558261329b565b604082019050919050565b600061276d602f83612be7565b9150612778826132ea565b604082019050919050565b6000612790602183612be7565b915061279b82613339565b604082019050919050565b60006127b3603183612be7565b91506127be82613388565b604082019050919050565b60006127d6601283612be7565b91506127e1826133d7565b602082019050919050565b6127f581612d3a565b82525050565b60006128078285612545565b91506128138284612545565b91508190509392505050565b600060208201905061283460008301846124b5565b92915050565b600060208201905061284f60008301846124a6565b92915050565b600060808201905061286a60008301876124b5565b61287760208301866124b5565b61288460408301856127ec565b818103606083015261289681846124d3565b905095945050505050565b60006020820190506128b660008301846124c4565b92915050565b600060208201905081810360008301526128d6818461250c565b905092915050565b600060208201905081810360008301526128f781612576565b9050919050565b6000602082019050818103600083015261291781612599565b9050919050565b60006020820190508181036000830152612937816125bc565b9050919050565b60006020820190508181036000830152612957816125df565b9050919050565b6000602082019050818103600083015261297781612602565b9050919050565b6000602082019050818103600083015261299781612625565b9050919050565b600060208201905081810360008301526129b781612648565b9050919050565b600060208201905081810360008301526129d78161266b565b9050919050565b600060208201905081810360008301526129f78161268e565b9050919050565b60006020820190508181036000830152612a17816126b1565b9050919050565b60006020820190508181036000830152612a37816126d4565b9050919050565b60006020820190508181036000830152612a57816126f7565b9050919050565b60006020820190508181036000830152612a778161271a565b9050919050565b60006020820190508181036000830152612a978161273d565b9050919050565b60006020820190508181036000830152612ab781612760565b9050919050565b60006020820190508181036000830152612ad781612783565b9050919050565b60006020820190508181036000830152612af7816127a6565b9050919050565b60006020820190508181036000830152612b17816127c9565b9050919050565b6000602082019050612b3360008301846127ec565b92915050565b6000612b43612b54565b9050612b4f8282612db8565b919050565b6000604051905090565b600067ffffffffffffffff821115612b7957612b78612ef0565b5b612b8282612f1f565b9050602081019050919050565b600067ffffffffffffffff821115612baa57612ba9612ef0565b5b612bb382612f1f565b9050602081019050919050565b600081519050919050565b600081519050919050565b600082825260208201905092915050565b600082825260208201905092915050565b600081905092915050565b6000612c0e82612d3a565b9150612c1983612d3a565b9250827fffffffffffffffffffffffffffffffffffffffffffffffffffffffffffffffff03821115612c4e57612c4d612e63565b5b828201905092915050565b6000612c6482612d3a565b9150612c6f83612d3a565b925082612c7f57612c7e612e92565b5b828204905092915050565b6000612c9582612d3a565b9150612ca083612d3a565b925082821015612cb357612cb2612e63565b5b828203905092915050565b6000612cc982612d1a565b9050919050565b6000612cdb82612d1a565b9050919050565b60008115159050919050565b60007fffffffff0000000000000000000000000000000000000000000000000000000082169050919050565b600073ffffffffffffffffffffffffffffffffffffffff82169050919050565b6000819050919050565b82818337600083830152505050565b60005b83811015612d71578082015181840152602081019050612d56565b83811115612d80576000848401525b50505050565b60006002820490506001821680612d9e57607f821691505b60208210811415612db257612db1612ec1565b5b50919050565b612dc182612f1f565b810181811067ffffffffffffffff82111715612de057612ddf612ef0565b5b80604052505050565b6000612df482612d3a565b91507fffffffffffffffffffffffffffffffffffffffffffffffffffffffffffffffff821415612e2757612e26612e63565b5b600182019050919050565b6000612e3d82612d3a565b9150612e4883612d3a565b925082612e5857612e57612e92565b5b828206905092915050565b7f4e487b7100000000000000000000000000000000000000000000000000000000600052601160045260246000fd5b7f4e487b7100000000000000000000000000000000000000000000000000000000600052601260045260246000fd5b7f4e487b7100000000000000000000000000000000000000000000000000000000600052602260045260246000fd5b7f4e487b7100000000000000000000000000000000000000000000000000000000600052604160045260246000fd5b6000601f19601f8301169050919050565b7f4552433732313a207472616e7366657220746f206e6f6e20455243373231526560008201527f63656976657220696d706c656d656e7465720000000000000000000000000000602082015250565b7f4f776e61626c653a206e6577206f776e657220697320746865207a65726f206160008201527f6464726573730000000000000000000000000000000000000000000000000000602082015250565b7f4552433732313a20746f6b656e20616c7265616479206d696e74656400000000600082015250565b7f4552433732313a207472616e7366657220746f20746865207a65726f2061646460008201527f7265737300000000000000000000000000000000000000000000000000000000602082015250565b7f4552433732313a20617070726f766520746f2063616c6c657200000000000000600082015250565b7f5472616e73616374696f6e2076616c756520646964206e6f7420657175616c2060008201527f746865206d696e74207072696365000000000000000000000000000000000000602082015250565b7f4552433732313a206f70657261746f7220717565727920666f72206e6f6e657860008201527f697374656e7420746f6b656e0000000000000000000000000000000000000000602082015250565b7f4552433732313a20617070726f76652063616c6c6572206973206e6f74206f7760008201527f6e6572206e6f7220617070726f76656420666f7220616c6c0000000000000000602082015250565b7f4552433732313a2062616c616e636520717565727920666f7220746865207a6560008201527f726f206164647265737300000000000000000000000000000000000000000000602082015250565b7f4552433732313a206f776e657220717565727920666f72206e6f6e657869737460008201527f656e7420746f6b656e0000000000000000000000000000000000000000000000602082015250565b7f4552433732313a206d696e7420746f20746865207a65726f2061646472657373600082015250565b7f4552433732313a20617070726f76656420717565727920666f72206e6f6e657860008201527f697374656e7420746f6b656e0000000000000000000000000000000000000000602082015250565b7f4f776e61626c653a2063616c6c6572206973206e6f7420746865206f776e6572600082015250565b7f4552433732313a207472616e73666572206f6620746f6b656e2074686174206960008201527f73206e6f74206f776e0000000000000000000000000000000000000000000000602082015250565b7f4552433732314d657461646174613a2055524920717565727920666f72206e6f60008201527f6e6578697374656e7420746f6b656e0000000000000000000000000000000000602082015250565b7f4552433732313a20617070726f76616c20746f2063757272656e74206f776e6560008201527f7200000000000000000000000000000000000000000000000000000000000000602082015250565b7f4552433732313a207472616e736665722063616c6c6572206973206e6f74206f60008201527f776e6572206e6f7220617070726f766564000000000000000000000000000000602082015250565b7f4d617820737570706c7920726561636865640000000000000000000000000000600082015250565b61340981612cbe565b811461341457600080fd5b50565b61342081612cd0565b811461342b57600080fd5b50565b61343781612ce2565b811461344257600080fd5b50565b61344e81612cee565b811461345957600080fd5b50565b61346581612d3a565b811461347057600080fd5b5056fea26469706673582212202e120aac4bed2e4bb6bfe5c9fa99ef3e213ac2cff0ba8acc5547616480b5aca364736f6c63430008030033608060405234801561001057600080fd5b5061002d61002261003260201b60201c565b61003a60201b60201c565b6100fe565b600033905090565b60008060009054906101000a900473ffffffffffffffffffffffffffffffffffffffff169050816000806101000a81548173ffffffffffffffffffffffffffffffffffffffff021916908373ffffffffffffffffffffffffffffffffffffffff1602179055508173ffffffffffffffffffffffffffffffffffffffff168173ffffffffffffffffffffffffffffffffffffffff167f8be0079c531659141344cd1fd0a4f28419497f9722a3daafe3b4186f6b6457e060405160405180910390a35050565b610bfc8061010d6000396000f3fe6080604052600436106100555760003560e01c806351cff8d91461005a578063715018a6146100835780638da5cb5b1461009a578063e3a9db1a146100c5578063f2fde38b14610102578063f340fa011461012b575b600080fd5b34801561006657600080fd5b50610081600480360381019061007c91906107f5565b610147565b005b34801561008f57600080fd5b506100986102c7565b005b3480156100a657600080fd5b506100af61034f565b6040516100bc9190610900565b60405180910390f35b3480156100d157600080fd5b506100ec60048036038101906100e791906107cc565b610378565b6040516100f9919061099b565b60405180910390f35b34801561010e57600080fd5b50610129600480360381019061012491906107cc565b6103c1565b005b610145600480360381019061014091906107cc565b6104b9565b005b61014f6105e2565b73ffffffffffffffffffffffffffffffffffffffff1661016d61034f565b73ffffffffffffffffffffffffffffffffffffffff16146101c3576040517f08c379a00000000000000000000000000000000000000000000000000000000081526004016101ba9061097b565b60405180910390fd5b6000600160008373ffffffffffffffffffffffffffffffffffffffff1673ffffffffffffffffffffffffffffffffffffffff1681526020019081526020016000205490506000600160008473ffffffffffffffffffffffffffffffffffffffff1673ffffffffffffffffffffffffffffffffffffffff16815260200190815260200160002081905550610275818373ffffffffffffffffffffffffffffffffffffffff166105ea90919063ffffffff16565b8173ffffffffffffffffffffffffffffffffffffffff167f7084f5476618d8e60b11ef0d7d3f06914655adb8793e28ff7f018d4c76d505d5826040516102bb919061099b565b60405180910390a25050565b6102cf6105e2565b73ffffffffffffffffffffffffffffffffffffffff166102ed61034f565b73ffffffffffffffffffffffffffffffffffffffff1614610343576040517f08c379a000000000000000000000000000000000000000000000000000000000815260040161033a9061097b565b60405180910390fd5b61034d60006106de565b565b60008060009054906101000a900473ffffffffffffffffffffffffffffffffffffffff16905090565b6000600160008373ffffffffffffffffffffffffffffffffffffffff1673ffffffffffffffffffffffffffffffffffffffff168152602001908152602001600020549050919050565b6103c96105e2565b73ffffffffffffffffffffffffffffffffffffffff166103e761034f565b73ffffffffffffffffffffffffffffffffffffffff161461043d576040517f08c379a00000000000000000000000000000000000000000000000000000000081526004016104349061097b565b60405180910390fd5b600073ffffffffffffffffffffffffffffffffffffffff168173ffffffffffffffffffffffffffffffffffffffff1614156104ad576040517f08c379a00000000000000000000000000000000000000000000000000000000081526004016104a49061091b565b60405180910390fd5b6104b6816106de565b50565b6104c16105e2565b73ffffffffffffffffffffffffffffffffffffffff166104df61034f565b73ffffffffffffffffffffffffffffffffffffffff1614610535576040517f08c379a000000000000000000000000000000000000000000000000000000000815260040161052c9061097b565b60405180910390fd5b600034905080600160008473ffffffffffffffffffffffffffffffffffffffff1673ffffffffffffffffffffffffffffffffffffffff168152602001908152602001600020600082825461058991906109d2565b925050819055508173ffffffffffffffffffffffffffffffffffffffff167f2da466a7b24304f47e87fa2e1e5a81b9831ce54fec19055ce277ca2f39ba42c4826040516105d6919061099b565b60405180910390a25050565b600033905090565b8047101561062d576040517f08c379a00000000000000000000000000000000000000000000000000000000081526004016106249061095b565b60405180910390fd5b60008273ffffffffffffffffffffffffffffffffffffffff1682604051610653906108eb565b60006040518083038185875af1925050503d8060008114610690576040519150601f19603f3d011682016040523d82523d6000602084013e610695565b606091505b50509050806106d9576040517f08c379a00000000000000000000000000000000000000000000000000000000081526004016106d09061093b565b60405180910390fd5b505050565b60008060009054906101000a900473ffffffffffffffffffffffffffffffffffffffff169050816000806101000a81548173ffffffffffffffffffffffffffffffffffffffff021916908373ffffffffffffffffffffffffffffffffffffffff1602179055508173ffffffffffffffffffffffffffffffffffffffff168173ffffffffffffffffffffffffffffffffffffffff167f8be0079c531659141344cd1fd0a4f28419497f9722a3daafe3b4186f6b6457e060405160405180910390a35050565b6000813590506107b181610b98565b92915050565b6000813590506107c681610baf565b92915050565b6000602082840312156107de57600080fd5b60006107ec848285016107a2565b91505092915050565b60006020828403121561080757600080fd5b6000610815848285016107b7565b91505092915050565b61082781610a28565b82525050565b600061083a6026836109c1565b915061084582610aa5565b604082019050919050565b600061085d603a836109c1565b915061086882610af4565b604082019050919050565b6000610880601d836109c1565b915061088b82610b43565b602082019050919050565b60006108a36020836109c1565b91506108ae82610b6c565b602082019050919050565b60006108c66000836109b6565b91506108d182610b95565b600082019050919050565b6108e581610a6c565b82525050565b60006108f6826108b9565b9150819050919050565b6000602082019050610915600083018461081e565b92915050565b600060208201905081810360008301526109348161082d565b9050919050565b6000602082019050818103600083015261095481610850565b9050919050565b6000602082019050818103600083015261097481610873565b9050919050565b6000602082019050818103600083015261099481610896565b9050919050565b60006020820190506109b060008301846108dc565b92915050565b600081905092915050565b600082825260208201905092915050565b60006109dd82610a6c565b91506109e883610a6c565b9250827fffffffffffffffffffffffffffffffffffffffffffffffffffffffffffffffff03821115610a1d57610a1c610a76565b5b828201905092915050565b6000610a3382610a4c565b9050919050565b6000610a4582610a4c565b9050919050565b600073ffffffffffffffffffffffffffffffffffffffff82169050919050565b6000819050919050565b7f4e487b7100000000000000000000000000000000000000000000000000000000600052601160045260246000fd5b7f4f776e61626c653a206e6577206f776e657220697320746865207a65726f206160008201527f6464726573730000000000000000000000000000000000000000000000000000602082015250565b7f416464726573733a20756e61626c6520746f2073656e642076616c75652c207260008201527f6563697069656e74206d61792068617665207265766572746564000000000000602082015250565b7f416464726573733a20696e73756666696369656e742062616c616e6365000000600082015250565b7f4f776e61626c653a2063616c6c6572206973206e6f7420746865206f776e6572600082015250565b50565b610ba181610a28565b8114610bac57600080fd5b50565b610bb881610a3a565b8114610bc357600080fd5b5056fea2646970667358221220bbebd5abc00c380680df830fb399063e920682c986046e1ed707f900ab67793964736f6c63430008030033",
  "linkReferences": {},
  "deployedLinkReferences": {}
}